{
  "address": "0x999FAF0AF2fF109938eeFE6A7BF91CA56f0D07e1",
  "abi": [
    {
      "inputs": [
        {
          "internalType": "string",
          "name": "name",
          "type": "string"
        },
        {
          "internalType": "string",
          "name": "symbol",
          "type": "string"
        },
        {
          "internalType": "uint8",
          "name": "decimals_",
          "type": "uint8"
        },
        {
          "internalType": "uint256",
          "name": "maxSupply_",
          "type": "uint256"
        }
      ],
      "stateMutability": "nonpayable",
      "type": "constructor"
    },
    {
      "inputs": [
        {
          "internalType": "uint256",
          "name": "supplyAfterMint",
          "type": "uint256"
        }
      ],
      "name": "MaxSupplyExceeded",
      "type": "error"
    },
    {
      "inputs": [
        {
          "internalType": "address",
          "name": "sender",
          "type": "address"
        }
      ],
      "name": "SenderNotBurner",
      "type": "error"
    },
    {
      "inputs": [
        {
          "internalType": "address",
          "name": "sender",
          "type": "address"
        }
      ],
      "name": "SenderNotMinter",
      "type": "error"
    },
    {
      "anonymous": false,
      "inputs": [
        {
          "indexed": true,
          "internalType": "address",
          "name": "owner",
          "type": "address"
        },
        {
          "indexed": true,
          "internalType": "address",
          "name": "spender",
          "type": "address"
        },
        {
          "indexed": false,
          "internalType": "uint256",
          "name": "value",
          "type": "uint256"
        }
      ],
      "name": "Approval",
      "type": "event"
    },
    {
      "anonymous": false,
      "inputs": [
        {
          "indexed": true,
          "internalType": "address",
          "name": "burner",
          "type": "address"
        }
      ],
      "name": "BurnAccessGranted",
      "type": "event"
    },
    {
      "anonymous": false,
      "inputs": [
        {
          "indexed": true,
          "internalType": "address",
          "name": "burner",
          "type": "address"
        }
      ],
      "name": "BurnAccessRevoked",
      "type": "event"
    },
    {
      "anonymous": false,
      "inputs": [
        {
          "indexed": true,
          "internalType": "address",
          "name": "minter",
          "type": "address"
        }
      ],
      "name": "MintAccessGranted",
      "type": "event"
    },
    {
      "anonymous": false,
      "inputs": [
        {
          "indexed": true,
          "internalType": "address",
          "name": "minter",
          "type": "address"
        }
      ],
      "name": "MintAccessRevoked",
      "type": "event"
    },
    {
      "anonymous": false,
      "inputs": [
        {
          "indexed": true,
          "internalType": "address",
          "name": "from",
          "type": "address"
        },
        {
          "indexed": true,
          "internalType": "address",
          "name": "to",
          "type": "address"
        }
      ],
      "name": "OwnershipTransferRequested",
      "type": "event"
    },
    {
      "anonymous": false,
      "inputs": [
        {
          "indexed": true,
          "internalType": "address",
          "name": "from",
          "type": "address"
        },
        {
          "indexed": true,
          "internalType": "address",
          "name": "to",
          "type": "address"
        }
      ],
      "name": "OwnershipTransferred",
      "type": "event"
    },
    {
      "anonymous": false,
      "inputs": [
        {
          "indexed": true,
          "internalType": "address",
          "name": "from",
          "type": "address"
        },
        {
          "indexed": true,
          "internalType": "address",
          "name": "to",
          "type": "address"
        },
        {
          "indexed": false,
          "internalType": "uint256",
          "name": "value",
          "type": "uint256"
        }
      ],
      "name": "Transfer",
      "type": "event"
    },
    {
      "anonymous": false,
      "inputs": [
        {
          "indexed": true,
          "internalType": "address",
          "name": "from",
          "type": "address"
        },
        {
          "indexed": true,
          "internalType": "address",
          "name": "to",
          "type": "address"
        },
        {
          "indexed": false,
          "internalType": "uint256",
          "name": "value",
          "type": "uint256"
        },
        {
          "indexed": false,
          "internalType": "bytes",
          "name": "data",
          "type": "bytes"
        }
      ],
      "name": "Transfer",
      "type": "event"
    },
    {
      "inputs": [],
      "name": "acceptOwnership",
      "outputs": [],
      "stateMutability": "nonpayable",
      "type": "function"
    },
    {
      "inputs": [
        {
          "internalType": "address",
          "name": "owner",
          "type": "address"
        },
        {
          "internalType": "address",
          "name": "spender",
          "type": "address"
        }
      ],
      "name": "allowance",
      "outputs": [
        {
          "internalType": "uint256",
          "name": "",
          "type": "uint256"
        }
      ],
      "stateMutability": "view",
      "type": "function"
    },
    {
      "inputs": [
        {
          "internalType": "address",
          "name": "spender",
          "type": "address"
        },
        {
          "internalType": "uint256",
          "name": "amount",
          "type": "uint256"
        }
      ],
      "name": "approve",
      "outputs": [
        {
          "internalType": "bool",
          "name": "",
          "type": "bool"
        }
      ],
      "stateMutability": "nonpayable",
      "type": "function"
    },
    {
      "inputs": [
        {
          "internalType": "address",
          "name": "account",
          "type": "address"
        }
      ],
      "name": "balanceOf",
      "outputs": [
        {
          "internalType": "uint256",
          "name": "",
          "type": "uint256"
        }
      ],
      "stateMutability": "view",
      "type": "function"
    },
    {
      "inputs": [
        {
          "internalType": "uint256",
          "name": "amount",
          "type": "uint256"
        }
      ],
      "name": "burn",
      "outputs": [],
      "stateMutability": "nonpayable",
      "type": "function"
    },
    {
      "inputs": [
        {
          "internalType": "address",
          "name": "account",
          "type": "address"
        },
        {
          "internalType": "uint256",
          "name": "amount",
          "type": "uint256"
        }
      ],
      "name": "burn",
      "outputs": [],
      "stateMutability": "nonpayable",
      "type": "function"
    },
    {
      "inputs": [
        {
          "internalType": "address",
          "name": "account",
          "type": "address"
        },
        {
          "internalType": "uint256",
          "name": "amount",
          "type": "uint256"
        }
      ],
      "name": "burnFrom",
      "outputs": [],
      "stateMutability": "nonpayable",
      "type": "function"
    },
    {
      "inputs": [],
      "name": "decimals",
      "outputs": [
        {
          "internalType": "uint8",
          "name": "",
          "type": "uint8"
        }
      ],
      "stateMutability": "view",
      "type": "function"
    },
    {
      "inputs": [
        {
          "internalType": "address",
          "name": "spender",
          "type": "address"
        },
        {
          "internalType": "uint256",
          "name": "subtractedValue",
          "type": "uint256"
        }
      ],
      "name": "decreaseAllowance",
      "outputs": [
        {
          "internalType": "bool",
          "name": "",
          "type": "bool"
        }
      ],
      "stateMutability": "nonpayable",
      "type": "function"
    },
    {
      "inputs": [
        {
          "internalType": "address",
          "name": "spender",
          "type": "address"
        },
        {
          "internalType": "uint256",
          "name": "subtractedValue",
          "type": "uint256"
        }
      ],
      "name": "decreaseApproval",
      "outputs": [
        {
          "internalType": "bool",
          "name": "success",
          "type": "bool"
        }
      ],
      "stateMutability": "nonpayable",
      "type": "function"
    },
    {
      "inputs": [],
      "name": "getBurners",
      "outputs": [
        {
          "internalType": "address[]",
          "name": "",
          "type": "address[]"
        }
      ],
      "stateMutability": "view",
      "type": "function"
    },
    {
      "inputs": [],
      "name": "getMinters",
      "outputs": [
        {
          "internalType": "address[]",
          "name": "",
          "type": "address[]"
        }
      ],
      "stateMutability": "view",
      "type": "function"
    },
    {
      "inputs": [
        {
          "internalType": "address",
          "name": "burner",
          "type": "address"
        }
      ],
      "name": "grantBurnRole",
      "outputs": [],
      "stateMutability": "nonpayable",
      "type": "function"
    },
    {
      "inputs": [
        {
          "internalType": "address",
          "name": "burnAndMinter",
          "type": "address"
        }
      ],
      "name": "grantMintAndBurnRoles",
      "outputs": [],
      "stateMutability": "nonpayable",
      "type": "function"
    },
    {
      "inputs": [
        {
          "internalType": "address",
          "name": "minter",
          "type": "address"
        }
      ],
      "name": "grantMintRole",
      "outputs": [],
      "stateMutability": "nonpayable",
      "type": "function"
    },
    {
      "inputs": [
        {
          "internalType": "address",
          "name": "spender",
          "type": "address"
        },
        {
          "internalType": "uint256",
          "name": "addedValue",
          "type": "uint256"
        }
      ],
      "name": "increaseAllowance",
      "outputs": [
        {
          "internalType": "bool",
          "name": "",
          "type": "bool"
        }
      ],
      "stateMutability": "nonpayable",
      "type": "function"
    },
    {
      "inputs": [
        {
          "internalType": "address",
          "name": "spender",
          "type": "address"
        },
        {
          "internalType": "uint256",
          "name": "addedValue",
          "type": "uint256"
        }
      ],
      "name": "increaseApproval",
      "outputs": [],
      "stateMutability": "nonpayable",
      "type": "function"
    },
    {
      "inputs": [
        {
          "internalType": "address",
          "name": "burner",
          "type": "address"
        }
      ],
      "name": "isBurner",
      "outputs": [
        {
          "internalType": "bool",
          "name": "",
          "type": "bool"
        }
      ],
      "stateMutability": "view",
      "type": "function"
    },
    {
      "inputs": [
        {
          "internalType": "address",
          "name": "minter",
          "type": "address"
        }
      ],
      "name": "isMinter",
      "outputs": [
        {
          "internalType": "bool",
          "name": "",
          "type": "bool"
        }
      ],
      "stateMutability": "view",
      "type": "function"
    },
    {
      "inputs": [],
      "name": "maxSupply",
      "outputs": [
        {
          "internalType": "uint256",
          "name": "",
          "type": "uint256"
        }
      ],
      "stateMutability": "view",
      "type": "function"
    },
    {
      "inputs": [
        {
          "internalType": "address",
          "name": "account",
          "type": "address"
        },
        {
          "internalType": "uint256",
          "name": "amount",
          "type": "uint256"
        }
      ],
      "name": "mint",
      "outputs": [],
      "stateMutability": "nonpayable",
      "type": "function"
    },
    {
      "inputs": [],
      "name": "name",
      "outputs": [
        {
          "internalType": "string",
          "name": "",
          "type": "string"
        }
      ],
      "stateMutability": "view",
      "type": "function"
    },
    {
      "inputs": [],
      "name": "owner",
      "outputs": [
        {
          "internalType": "address",
          "name": "",
          "type": "address"
        }
      ],
      "stateMutability": "view",
      "type": "function"
    },
    {
      "inputs": [
        {
          "internalType": "address",
          "name": "burner",
          "type": "address"
        }
      ],
      "name": "revokeBurnRole",
      "outputs": [],
      "stateMutability": "nonpayable",
      "type": "function"
    },
    {
      "inputs": [
        {
          "internalType": "address",
          "name": "minter",
          "type": "address"
        }
      ],
      "name": "revokeMintRole",
      "outputs": [],
      "stateMutability": "nonpayable",
      "type": "function"
    },
    {
      "inputs": [
        {
          "internalType": "bytes4",
          "name": "interfaceId",
          "type": "bytes4"
        }
      ],
      "name": "supportsInterface",
      "outputs": [
        {
          "internalType": "bool",
          "name": "",
          "type": "bool"
        }
      ],
      "stateMutability": "pure",
      "type": "function"
    },
    {
      "inputs": [],
      "name": "symbol",
      "outputs": [
        {
          "internalType": "string",
          "name": "",
          "type": "string"
        }
      ],
      "stateMutability": "view",
      "type": "function"
    },
    {
      "inputs": [],
      "name": "totalSupply",
      "outputs": [
        {
          "internalType": "uint256",
          "name": "",
          "type": "uint256"
        }
      ],
      "stateMutability": "view",
      "type": "function"
    },
    {
      "inputs": [
        {
          "internalType": "address",
          "name": "to",
          "type": "address"
        },
        {
          "internalType": "uint256",
          "name": "amount",
          "type": "uint256"
        }
      ],
      "name": "transfer",
      "outputs": [
        {
          "internalType": "bool",
          "name": "",
          "type": "bool"
        }
      ],
      "stateMutability": "nonpayable",
      "type": "function"
    },
    {
      "inputs": [
        {
          "internalType": "address",
          "name": "to",
          "type": "address"
        },
        {
          "internalType": "uint256",
          "name": "amount",
          "type": "uint256"
        },
        {
          "internalType": "bytes",
          "name": "data",
          "type": "bytes"
        }
      ],
      "name": "transferAndCall",
      "outputs": [
        {
          "internalType": "bool",
          "name": "success",
          "type": "bool"
        }
      ],
      "stateMutability": "nonpayable",
      "type": "function"
    },
    {
      "inputs": [
        {
          "internalType": "address",
          "name": "from",
          "type": "address"
        },
        {
          "internalType": "address",
          "name": "to",
          "type": "address"
        },
        {
          "internalType": "uint256",
          "name": "amount",
          "type": "uint256"
        }
      ],
      "name": "transferFrom",
      "outputs": [
        {
          "internalType": "bool",
          "name": "",
          "type": "bool"
        }
      ],
      "stateMutability": "nonpayable",
      "type": "function"
    },
    {
      "inputs": [
        {
          "internalType": "address",
          "name": "to",
          "type": "address"
        }
      ],
      "name": "transferOwnership",
      "outputs": [],
      "stateMutability": "nonpayable",
      "type": "function"
    }
  ],
  "transactionHash": "0xfa0c86c8cc4d2bb8b1e0658c3ac3bd5e00d5e0401261d72f539f0d043de352c1",
  "args": [
    "Ledgity Token",
    "LDY",
    18,
    "75000000000000000000000000"
  ],
  "numDeployments": 1,
  "solcInputHash": "d8b5802e009f6fee7aed14d8582e28a9",
  "bytecode": "0x60c06040523480156200001157600080fd5b5060405162001c2a38038062001c2a833981016040819052620000349162000277565b338060008686818160036200004a838262000391565b50600462000059828262000391565b5050506001600160a01b0384169150620000bc90505760405162461bcd60e51b815260206004820152601860248201527f43616e6e6f7420736574206f776e657220746f207a65726f000000000000000060448201526064015b60405180910390fd5b600580546001600160a01b0319166001600160a01b0384811691909117909155811615620000ef57620000ef8162000106565b50505060ff90911660805260a052506200045d9050565b336001600160a01b03821603620001605760405162461bcd60e51b815260206004820152601760248201527f43616e6e6f74207472616e7366657220746f2073656c660000000000000000006044820152606401620000b3565b600680546001600160a01b0319166001600160a01b03838116918217909255600554604051919216907fed8889f560326eb138920d842192f0eb3dd22b4f139c87a2c57538e05bae127890600090a350565b634e487b7160e01b600052604160045260246000fd5b600082601f830112620001da57600080fd5b81516001600160401b0380821115620001f757620001f7620001b2565b604051601f8301601f19908116603f01168101908282118183101715620002225762000222620001b2565b816040528381526020925086838588010111156200023f57600080fd5b600091505b8382101562000263578582018301518183018401529082019062000244565b600093810190920192909252949350505050565b600080600080608085870312156200028e57600080fd5b84516001600160401b0380821115620002a657600080fd5b620002b488838901620001c8565b95506020870151915080821115620002cb57600080fd5b50620002da87828801620001c8565b935050604085015160ff81168114620002f257600080fd5b6060959095015193969295505050565b600181811c908216806200031757607f821691505b6020821081036200033857634e487b7160e01b600052602260045260246000fd5b50919050565b601f8211156200038c57600081815260208120601f850160051c81016020861015620003675750805b601f850160051c820191505b81811015620003885782815560010162000373565b5050505b505050565b81516001600160401b03811115620003ad57620003ad620001b2565b620003c581620003be845462000302565b846200033e565b602080601f831160018114620003fd5760008415620003e45750858301515b600019600386901b1c1916600185901b17855562000388565b600085815260208120601f198616915b828110156200042e578886015182559484019460019091019084016200040d565b50858210156200044d5787850151600019600388901b60f8161c191681555b5050505050600190811b01905550565b60805160a051611799620004916000396000818161042d01528181610715015261073f0152600061027101526117996000f3fe608060405234801561001057600080fd5b50600436106101f05760003560e01c806379cc67901161010f578063c2e3273d116100a2578063d73dd62311610071578063d73dd62314610451578063dd62ed3e14610464578063f2fde38b14610477578063f81094f31461048a57600080fd5b8063c2e3273d146103f2578063c630948d14610405578063c64d0ebc14610418578063d5abeb011461042b57600080fd5b80639dc29fac116100de5780639dc29fac146103a6578063a457c2d7146103b9578063a9059cbb146103cc578063aa271e1a146103df57600080fd5b806379cc67901461036857806386fe8b431461037b5780638da5cb5b1461038357806395d89b411461039e57600080fd5b806340c10f19116101875780636618846311610156578063661884631461030f5780636b32810b1461032257806370a082311461033757806379ba50971461036057600080fd5b806340c10f19146102c157806342966c68146102d65780634334614a146102e95780634f5632f8146102fc57600080fd5b806323b872dd116101c357806323b872dd14610257578063313ce5671461026a578063395093511461029b5780634000aea0146102ae57600080fd5b806301ffc9a7146101f557806306fdde031461021d578063095ea7b31461023257806318160ddd14610245575b600080fd5b6102086102033660046113d6565b61049d565b60405190151581526020015b60405180910390f35b61022561050a565b6040516102149190611446565b610208610240366004611475565b61059c565b6002545b604051908152602001610214565b61020861026536600461149f565b6105b4565b60405160ff7f0000000000000000000000000000000000000000000000000000000000000000168152602001610214565b6102086102a9366004611475565b6105d8565b6102086102bc3660046114f1565b6105fa565b6102d46102cf366004611475565b6106d0565b005b6102d46102e43660046115bc565b6107b8565b6102086102f73660046115d5565b6107ec565b6102d461030a3660046115d5565b6107f9565b61020861031d366004611475565b610848565b61032a61085b565b60405161021491906115f0565b6102496103453660046115d5565b6001600160a01b031660009081526020819052604090205490565b6102d461086c565b6102d4610376366004611475565b61091a565b61032a610950565b6005546040516001600160a01b039091168152602001610214565b61022561095c565b6102d46103b4366004611475565b61096b565b6102086103c7366004611475565b610975565b6102086103da366004611475565b6109f0565b6102086103ed3660046115d5565b6109fe565b6102d46104003660046115d5565b610a0b565b6102d46104133660046115d5565b610a5a565b6102d46104263660046115d5565b610a68565b7f0000000000000000000000000000000000000000000000000000000000000000610249565b6102d461045f366004611475565b610ab7565b61024961047236600461163d565b610ac1565b6102d46104853660046115d5565b610aec565b6102d46104983660046115d5565b610afd565b60006001600160e01b031982166336372b0760e01b14806104ce57506001600160e01b03198216630200057560e51b145b806104e957506001600160e01b0319821663e6599b4d60e01b145b8061050457506001600160e01b031982166301ffc9a760e01b145b92915050565b60606003805461051990611670565b80601f016020809104026020016040519081016040528092919081815260200182805461054590611670565b80156105925780601f1061056757610100808354040283529160200191610592565b820191906000526020600020905b81548152906001019060200180831161057557829003601f168201915b5050505050905090565b6000336105aa818585610b4c565b5060019392505050565b6000336105c2858285610b73565b6105cd858585610be7565b506001949350505050565b6000336105aa8185856105eb8383610ac1565b6105f591906116c0565b610b4c565b600061060684846109f0565b50836001600160a01b0316336001600160a01b03167fe19260aff97b920c7df27010903aeb9c8d2be5d310a2c67824cf3f15396e4c16858560405161064c9291906116d3565b60405180910390a36001600160a01b0384163b156105aa57604051635260769b60e11b81526001600160a01b0385169063a4c0ed3690610694903390879087906004016116f4565b600060405180830381600087803b1580156106ae57600080fd5b505af11580156106c2573d6000803e3d6000fd5b505050505060019392505050565b6106d9336109fe565b6106fd5760405163e2c8c9d560e01b81523360048201526024015b60405180910390fd5b81306001600160a01b0382160361071357600080fd5b7f00000000000000000000000000000000000000000000000000000000000000001580159061077457507f00000000000000000000000000000000000000000000000000000000000000008261076860025490565b61077291906116c0565b115b156107a9578161078360025490565b61078d91906116c0565b60405163cbbf111360e01b81526004016106f491815260200190565b6107b38383610c08565b505050565b6107c1336107ec565b6107e05760405163c820b10b60e01b81523360048201526024016106f4565b6107e981610cc7565b50565b6000610504600983610cd1565b610801610cf3565b61080c600982610d48565b156107e9576040516001600160a01b038216907f0a675452746933cefe3d74182e78db7afe57ba60eaa4234b5d85e9aa41b0610c90600090a250565b60006108548383610975565b9392505050565b60606108676007610d5d565b905090565b6006546001600160a01b031633146108bf5760405162461bcd60e51b815260206004820152601660248201527526bab9ba10313290383937b837b9b2b21037bbb732b960511b60448201526064016106f4565b600580546001600160a01b0319808216339081179093556006805490911690556040516001600160a01b03909116919082907f8be0079c531659141344cd1fd0a4f28419497f9722a3daafe3b4186f6b6457e090600090a350565b610923336107ec565b6109425760405163c820b10b60e01b81523360048201526024016106f4565b61094c8282610d6a565b5050565b60606108676009610d5d565b60606004805461051990611670565b61094c828261091a565b600033816109838286610ac1565b9050838110156109e35760405162461bcd60e51b815260206004820152602560248201527f45524332303a2064656372656173656420616c6c6f77616e63652062656c6f77604482015264207a65726f60d81b60648201526084016106f4565b6105cd8286868403610b4c565b6000336105aa818585610be7565b6000610504600783610cd1565b610a13610cf3565b610a1e600782610d7f565b156107e9576040516001600160a01b038216907fe46fef8bbff1389d9010703cf8ebb363fb3daf5bf56edc27080b67bc8d9251ea90600090a250565b610a6381610a0b565b6107e9815b610a70610cf3565b610a7b600982610d7f565b156107e9576040516001600160a01b038216907f92308bb7573b2a3d17ddb868b39d8ebec433f3194421abc22d084f89658c9bad90600090a250565b6107b382826105d8565b6001600160a01b03918216600090815260016020908152604080832093909416825291909152205490565b610af4610cf3565b6107e981610d94565b610b05610cf3565b610b10600782610d48565b156107e9576040516001600160a01b038216907fed998b960f6340d045f620c119730f7aa7995e7425c2401d3a5b64ff998a59e990600090a250565b81306001600160a01b03821603610b6257600080fd5b610b6d848484610e3e565b50505050565b6000610b7f8484610ac1565b90506000198114610b6d5781811015610bda5760405162461bcd60e51b815260206004820152601d60248201527f45524332303a20696e73756666696369656e7420616c6c6f77616e636500000060448201526064016106f4565b610b6d8484848403610b4c565b81306001600160a01b03821603610bfd57600080fd5b610b6d848484610f62565b6001600160a01b038216610c5e5760405162461bcd60e51b815260206004820152601f60248201527f45524332303a206d696e7420746f20746865207a65726f20616464726573730060448201526064016106f4565b8060026000828254610c7091906116c0565b90915550506001600160a01b038216600081815260208181526040808320805486019055518481527fddf252ad1be2c89b69c2b068fc378daa952ba7f163c4a11628f55a4df523b3ef910160405180910390a35050565b6107e93382611106565b6001600160a01b03811660009081526001830160205260408120541515610854565b6005546001600160a01b03163314610d465760405162461bcd60e51b815260206004820152601660248201527527b7363c9031b0b63630b1363290313c9037bbb732b960511b60448201526064016106f4565b565b6000610854836001600160a01b038416611238565b606060006108548361132b565b610d75823383610b73565b61094c8282611106565b6000610854836001600160a01b038416611387565b336001600160a01b03821603610dec5760405162461bcd60e51b815260206004820152601760248201527f43616e6e6f74207472616e7366657220746f2073656c6600000000000000000060448201526064016106f4565b600680546001600160a01b0319166001600160a01b03838116918217909255600554604051919216907fed8889f560326eb138920d842192f0eb3dd22b4f139c87a2c57538e05bae127890600090a350565b6001600160a01b038316610ea05760405162461bcd60e51b8152602060048201526024808201527f45524332303a20617070726f76652066726f6d20746865207a65726f206164646044820152637265737360e01b60648201526084016106f4565b6001600160a01b038216610f015760405162461bcd60e51b815260206004820152602260248201527f45524332303a20617070726f766520746f20746865207a65726f206164647265604482015261737360f01b60648201526084016106f4565b6001600160a01b0383811660008181526001602090815260408083209487168084529482529182902085905590518481527f8c5be1e5ebec7d5bd14f71427d1e84f3dd0314c0f7b2291e5b200ac8c7c3b925910160405180910390a3505050565b6001600160a01b038316610fc65760405162461bcd60e51b815260206004820152602560248201527f45524332303a207472616e736665722066726f6d20746865207a65726f206164604482015264647265737360d81b60648201526084016106f4565b6001600160a01b0382166110285760405162461bcd60e51b815260206004820152602360248201527f45524332303a207472616e7366657220746f20746865207a65726f206164647260448201526265737360e81b60648201526084016106f4565b6001600160a01b038316600090815260208190526040902054818110156110a05760405162461bcd60e51b815260206004820152602660248201527f45524332303a207472616e7366657220616d6f756e7420657863656564732062604482015265616c616e636560d01b60648201526084016106f4565b6001600160a01b03848116600081815260208181526040808320878703905593871680835291849020805487019055925185815290927fddf252ad1be2c89b69c2b068fc378daa952ba7f163c4a11628f55a4df523b3ef910160405180910390a3610b6d565b6001600160a01b0382166111665760405162461bcd60e51b815260206004820152602160248201527f45524332303a206275726e2066726f6d20746865207a65726f206164647265736044820152607360f81b60648201526084016106f4565b6001600160a01b038216600090815260208190526040902054818110156111da5760405162461bcd60e51b815260206004820152602260248201527f45524332303a206275726e20616d6f756e7420657863656564732062616c616e604482015261636560f01b60648201526084016106f4565b6001600160a01b0383166000818152602081815260408083208686039055600280548790039055518581529192917fddf252ad1be2c89b69c2b068fc378daa952ba7f163c4a11628f55a4df523b3ef910160405180910390a3505050565b6000818152600183016020526040812054801561132157600061125c600183611724565b855490915060009061127090600190611724565b90508181146112d557600086600001828154811061129057611290611737565b90600052602060002001549050808760000184815481106112b3576112b3611737565b6000918252602080832090910192909255918252600188019052604090208390555b85548690806112e6576112e661174d565b600190038181906000526020600020016000905590558560010160008681526020019081526020016000206000905560019350505050610504565b6000915050610504565b60608160000180548060200260200160405190810160405280929190818152602001828054801561137b57602002820191906000526020600020905b815481526020019060010190808311611367575b50505050509050919050565b60008181526001830160205260408120546113ce57508154600181810184556000848152602080822090930184905584548482528286019093526040902091909155610504565b506000610504565b6000602082840312156113e857600080fd5b81356001600160e01b03198116811461085457600080fd5b6000815180845260005b818110156114265760208185018101518683018201520161140a565b506000602082860101526020601f19601f83011685010191505092915050565b6020815260006108546020830184611400565b80356001600160a01b038116811461147057600080fd5b919050565b6000806040838503121561148857600080fd5b61149183611459565b946020939093013593505050565b6000806000606084860312156114b457600080fd5b6114bd84611459565b92506114cb60208501611459565b9150604084013590509250925092565b634e487b7160e01b600052604160045260246000fd5b60008060006060848603121561150657600080fd5b61150f84611459565b925060208401359150604084013567ffffffffffffffff8082111561153357600080fd5b818601915086601f83011261154757600080fd5b813581811115611559576115596114db565b604051601f8201601f19908116603f01168101908382118183101715611581576115816114db565b8160405282815289602084870101111561159a57600080fd5b8260208601602083013760006020848301015280955050505050509250925092565b6000602082840312156115ce57600080fd5b5035919050565b6000602082840312156115e757600080fd5b61085482611459565b6020808252825182820181905260009190848201906040850190845b818110156116315783516001600160a01b03168352928401929184019160010161160c565b50909695505050505050565b6000806040838503121561165057600080fd5b61165983611459565b915061166760208401611459565b90509250929050565b600181811c9082168061168457607f821691505b6020821081036116a457634e487b7160e01b600052602260045260246000fd5b50919050565b634e487b7160e01b600052601160045260246000fd5b80820180821115610504576105046116aa565b8281526040602082015260006116ec6040830184611400565b949350505050565b60018060a01b038416815282602082015260606040820152600061171b6060830184611400565b95945050505050565b81810381811115610504576105046116aa565b634e487b7160e01b600052603260045260246000fd5b634e487b7160e01b600052603160045260246000fdfea264697066735822122026bf827ff7c4546d08bc173f7cb82c7ccf3be629370907c1d7e2e74f372b4c0164736f6c63430008140033",
  "devdoc": {
    "details": "The total supply can be limited during deployment.",
    "events": {
      "Approval(address,address,uint256)": {
        "details": "Emitted when the allowance of a `spender` for an `owner` is set by a call to {approve}. `value` is the new allowance."
      },
      "Transfer(address,address,uint256)": {
        "details": "Emitted when `value` tokens are moved from one account (`from`) to another (`to`). Note that `value` may be zero."
      }
    },
    "kind": "dev",
    "methods": {
      "allowance(address,address)": {
        "details": "See {IERC20-allowance}."
      },
      "approve(address,uint256)": {
        "details": "See {IERC20-approve}. NOTE: If `amount` is the maximum `uint256`, the allowance is not updated on `transferFrom`. This is semantically equivalent to an infinite approval. Requirements: - `spender` cannot be the zero address."
      },
      "balanceOf(address)": {
        "details": "See {IERC20-balanceOf}."
      },
      "burn(address,uint256)": {
        "details": "Alias for BurnFrom for compatibility with the older naming convention.Uses burnFrom for all validation & logic.",
        "params": {
          "account": "The address to burn tokens from.",
          "amount": "The number of tokens to be burned."
        }
      },
      "burn(uint256)": {
        "details": "Uses OZ ERC20 _burn to disallow burning from address(0).Decreases the total supply."
      },
      "burnFrom(address,uint256)": {
        "details": "Uses OZ ERC20 _burn to disallow burning from address(0).Decreases the total supply."
      },
      "decimals()": {
        "details": "Returns the number of decimals used in its user representation."
      },
      "decreaseAllowance(address,uint256)": {
        "details": "Atomically decreases the allowance granted to `spender` by the caller. This is an alternative to {approve} that can be used as a mitigation for problems described in {IERC20-approve}. Emits an {Approval} event indicating the updated allowance. Requirements: - `spender` cannot be the zero address. - `spender` must have allowance for the caller of at least `subtractedValue`."
      },
      "decreaseApproval(address,uint256)": {
        "details": "Exists to be backwards compatible with the older naming convention."
      },
      "grantBurnRole(address)": {
        "details": "only the owner can call this function."
      },
      "grantMintAndBurnRoles(address)": {
        "details": "calls public functions so this function does not require access controls. This is handled in the inner functions."
      },
      "grantMintRole(address)": {
        "details": "only the owner can call this function."
      },
      "increaseAllowance(address,uint256)": {
        "details": "Atomically increases the allowance granted to `spender` by the caller. This is an alternative to {approve} that can be used as a mitigation for problems described in {IERC20-approve}. Emits an {Approval} event indicating the updated allowance. Requirements: - `spender` cannot be the zero address."
      },
      "increaseApproval(address,uint256)": {
        "details": "Exists to be backwards compatible with the older naming convention."
      },
      "isBurner(address)": {
        "returns": {
          "_0": "true if the address is allowed to burn."
        }
      },
      "isMinter(address)": {
        "returns": {
          "_0": "true if the address is allowed to mint."
        }
      },
      "maxSupply()": {
        "details": "Returns the max supply of the token, 0 if unlimited."
      },
      "mint(address,uint256)": {
        "details": "Uses OZ ERC20 _mint to disallow minting to address(0).Disallows minting to address(this)Increases the total supply.",
        "params": {
          "account": "The address to mint the new tokens to.",
          "amount": "The number of tokens to be minted."
        }
      },
      "name()": {
        "details": "Returns the name of the token."
      },
      "revokeBurnRole(address)": {
        "details": "only the owner can call this function"
      },
      "revokeMintRole(address)": {
        "details": "only the owner can call this function."
      },
      "supportsInterface(bytes4)": {
        "details": "Returns true if this contract implements the interface defined by `interfaceId`. See the corresponding https://eips.ethereum.org/EIPS/eip-165#how-interfaces-are-identified[EIP section] to learn more about how these ids are created. This function call must use less than 30 000 gas."
      },
      "symbol()": {
        "details": "Returns the symbol of the token, usually a shorter version of the name."
      },
      "totalSupply()": {
        "details": "See {IERC20-totalSupply}."
      },
      "transfer(address,uint256)": {
        "details": "See {IERC20-transfer}. Requirements: - `to` cannot be the zero address. - the caller must have a balance of at least `amount`."
      },
      "transferAndCall(address,uint256,bytes)": {
        "params": {
          "amount": "The amount of tokens to be transferred",
          "data": "bytes Additional data with no specified format, sent in call to `to`",
          "to": "The address which you want to transfer to"
        },
        "returns": {
          "success": "true unless throwing"
        }
      },
      "transferFrom(address,address,uint256)": {
        "details": "See {IERC20-transferFrom}. Emits an {Approval} event indicating the updated allowance. This is not required by the EIP. See the note at the beginning of {ERC20}. NOTE: Does not update the allowance if the current allowance is the maximum `uint256`. Requirements: - `from` and `to` cannot be the zero address. - `from` must have a balance of at least `amount`. - the caller must have allowance for ``from``'s tokens of at least `amount`."
      }
    },
    "stateVariables": {
      "i_decimals": {
        "details": "The number of decimals for the token"
      },
      "i_maxSupply": {
        "details": "The maximum supply of the token, 0 if unlimited"
      }
    },
    "version": 1
  },
  "userdoc": {
    "kind": "user",
    "methods": {
      "acceptOwnership()": {
        "notice": "Allows an ownership transfer to be completed by the recipient."
      },
      "burn(address,uint256)": {
        "notice": "Burns tokens from a given address.."
      },
      "getBurners()": {
        "notice": "Returns all permissioned burners"
      },
      "getMinters()": {
        "notice": "Returns all permissioned minters"
      },
      "grantBurnRole(address)": {
        "notice": "Grants burn role to the given address."
      },
      "grantMintAndBurnRoles(address)": {
        "notice": "grants both mint and burn roles to `burnAndMinter`."
      },
      "grantMintRole(address)": {
        "notice": "Grants mint role to the given address."
      },
      "isBurner(address)": {
        "notice": "Checks whether a given address is a burner for this token."
      },
      "isMinter(address)": {
        "notice": "Checks whether a given address is a minter for this token."
      },
      "mint(address,uint256)": {
        "notice": "Mints new tokens for a given address."
      },
      "owner()": {
        "notice": "Get the current owner"
      },
      "revokeBurnRole(address)": {
        "notice": "Revokes burn role from the given address."
      },
      "revokeMintRole(address)": {
        "notice": "Revokes mint role for the given address."
      },
      "transferAndCall(address,uint256,bytes)": {
        "notice": "Transfer tokens from `msg.sender` to another address and then call `onTransferReceived` on receiver"
      },
      "transferOwnership(address)": {
        "notice": "Allows an owner to begin transferring ownership to a new address, pending."
      }
    },
    "notice": "A basic ERC677 compatible token contract with burn and minting roles.",
    "version": 1
  },
  "storageLayout": {
    "storage": [
      {
        "astId": 15,
        "contract": "src/LDY.sol:LDY",
        "label": "_balances",
        "offset": 0,
        "slot": "0",
        "type": "t_mapping(t_address,t_uint256)"
      },
      {
        "astId": 21,
        "contract": "src/LDY.sol:LDY",
        "label": "_allowances",
        "offset": 0,
        "slot": "1",
        "type": "t_mapping(t_address,t_mapping(t_address,t_uint256))"
      },
      {
        "astId": 23,
        "contract": "src/LDY.sol:LDY",
        "label": "_totalSupply",
        "offset": 0,
        "slot": "2",
        "type": "t_uint256"
      },
      {
        "astId": 25,
        "contract": "src/LDY.sol:LDY",
        "label": "_name",
        "offset": 0,
        "slot": "3",
        "type": "t_string_storage"
      },
      {
        "astId": 27,
        "contract": "src/LDY.sol:LDY",
        "label": "_symbol",
        "offset": 0,
        "slot": "4",
        "type": "t_string_storage"
      },
      {
        "astId": 2012,
        "contract": "src/LDY.sol:LDY",
        "label": "s_owner",
        "offset": 0,
        "slot": "5",
        "type": "t_address"
      },
      {
        "astId": 2014,
        "contract": "src/LDY.sol:LDY",
        "label": "s_pendingOwner",
        "offset": 0,
        "slot": "6",
        "type": "t_address"
      },
      {
        "astId": 1444,
        "contract": "src/LDY.sol:LDY",
        "label": "s_minters",
        "offset": 0,
        "slot": "7",
        "type": "t_struct(AddressSet)1093_storage"
      },
      {
        "astId": 1447,
        "contract": "src/LDY.sol:LDY",
        "label": "s_burners",
        "offset": 0,
        "slot": "9",
        "type": "t_struct(AddressSet)1093_storage"
      }
    ],
    "types": {
      "t_address": {
        "encoding": "inplace",
        "label": "address",
        "numberOfBytes": "20"
      },
      "t_array(t_bytes32)dyn_storage": {
        "base": "t_bytes32",
        "encoding": "dynamic_array",
        "label": "bytes32[]",
        "numberOfBytes": "32"
      },
      "t_bytes32": {
        "encoding": "inplace",
        "label": "bytes32",
        "numberOfBytes": "32"
      },
      "t_mapping(t_address,t_mapping(t_address,t_uint256))": {
        "encoding": "mapping",
        "key": "t_address",
        "label": "mapping(address => mapping(address => uint256))",
        "numberOfBytes": "32",
        "value": "t_mapping(t_address,t_uint256)"
      },
      "t_mapping(t_address,t_uint256)": {
        "encoding": "mapping",
        "key": "t_address",
        "label": "mapping(address => uint256)",
        "numberOfBytes": "32",
        "value": "t_uint256"
      },
      "t_mapping(t_bytes32,t_uint256)": {
        "encoding": "mapping",
        "key": "t_bytes32",
        "label": "mapping(bytes32 => uint256)",
        "numberOfBytes": "32",
        "value": "t_uint256"
      },
      "t_string_storage": {
        "encoding": "bytes",
        "label": "string",
        "numberOfBytes": "32"
      },
      "t_struct(AddressSet)1093_storage": {
        "encoding": "inplace",
        "label": "struct EnumerableSet.AddressSet",
        "members": [
          {
            "astId": 1092,
            "contract": "src/LDY.sol:LDY",
            "label": "_inner",
            "offset": 0,
            "slot": "0",
            "type": "t_struct(Set)778_storage"
          }
        ],
        "numberOfBytes": "64"
      },
      "t_struct(Set)778_storage": {
        "encoding": "inplace",
        "label": "struct EnumerableSet.Set",
        "members": [
          {
            "astId": 773,
            "contract": "src/LDY.sol:LDY",
            "label": "_values",
            "offset": 0,
            "slot": "0",
            "type": "t_array(t_bytes32)dyn_storage"
          },
          {
            "astId": 777,
            "contract": "src/LDY.sol:LDY",
            "label": "_indexes",
            "offset": 0,
            "slot": "1",
            "type": "t_mapping(t_bytes32,t_uint256)"
          }
        ],
        "numberOfBytes": "64"
      },
      "t_uint256": {
        "encoding": "inplace",
        "label": "uint256",
        "numberOfBytes": "32"
      }
    }
  }
}